:020000040800F2
:10000000880B00203102000839310008D929000886
:100010006930000811090008614200080000000072
:100020000000000000000000000000006134000833
:10003000190B0008000000003B3100083D370008A4
:100040004B0200084B0200084B0200084B0200085C
:100050004B0200084B0200081B0B00084B02000873
:10006000210B00084B020008270B00084B02000878
:100070004B0200084B0200084B0200084B0200082C
:100080004B0200084B0200084B0200084B0200081C
:100090004B0200084B0200084B0200082D0B000821
:1000A0004B0200086D390008613900084B02000856
:1000B0004B020008793900084B0200084B02000887
:1000C0004B0200084B0200084B0200084B020008DC
:1000D0004B020008893F00084B0200084B02000851
:1000E0004B0200084B0200084B0200084B020008BC
:1000F00091390008853900084B0200084B020008BE
:100100004B0200084B0200084B0200084B0200089B
:100110004B0200084B0200084B0200084B0200088B
:100120004B0200084B0200084B0200084B0200087B
:100130004B0200084B0200084B0200084B0200086B
:100140004B0200084B0200084B0200084B0200085B
:100150004B0200084B020008690A00084B02000825
:100160004B0200084B0200084B0200084B0200083B
:100170004B0200084B0200084B0200080000000080
:100180004B0200084B02000800F002F800F041F8B2
:100190000AA090E8000C82448344AAF10107DA45E2
:1001A00001D100F036F8AFF2090EBAE80F0013F0F3
:1001B000010F18BFFB1A43F0010318472C5A000027
:1001C0004C5A0000103A24BF78C878C1FAD85207B8
:1001D00024BF30C830C144BF04680C6070470000C1
:1001E0000023002400250026103A28BF78C1FBD840
:1001F000520728BF30C148BF0B607047642900F028
:10020000EB80002070471FB505F0C3FB1FBD10B584
:1002100010BD00F06DFA1146FFF7F5FF04F0A3FEE4
:1002200000F08BFA03B4FFF7F2FF03BC00F08EFA84
:100230000948804709480047FEE7FEE7FEE7FEE77A
:10024000FEE7FEE7FEE7FEE7FEE7FEE704480549B6
:10025000054A064B70470000D537000889010008A1
:1002600088050020880B00208807002088070020D0
:1002700053EA020C00F069802DE9F04B4FF00006C4
:10028000002B1FBFB3FA83F503FA05F424FA05F631
:100290005E4012BF1643B2FA82F502FA05F4C5F1C8
:1002A00020051EBF22FA05FC44EA0C04203556EA5C
:1002B000044C4FEA144418BF641C4FF000084FF080
:1002C0000009904271EB030C39D3002919BFB1FA30
:1002D00081F701FA07F6B0FA80F700FA07F6C7F1DE
:1002E00020071EBF20FA07FC46EA0C062037B6FBA3
:1002F000F4FCA7EB0507103F07F01F0BCBF120061E
:100300000CFA0BFB2CFA06F644BFB3460026202F4E
:10031000A4BF5E464FF0000B5BEA060C08BF4FF02F
:10032000010B19EB0B09ABFB027C48EB0608C01B69
:1003300006FB02CC0BFB03CC71EB0C01C1E70B46B7
:10034000024641464846BDE8F08B13B54FF0000029
:100350004FF00001AFF30080BDE81C407047000083
:100360000FB41CB5074B06AA7B446946009005985C
:1003700000F09DF90020694600F0ACF91CBC5DF866
:1003800014FB00006903000070B50446856900682D
:10039000C10601D5302600E02026C00707D070BD79
:1003A000D4E9012130469047206A401C20626D1E2E
:1003B000F6D570BD70B5044685690078C00707D1D1
:1003C00070BDD4E9012120209047206A401C2062A2
:1003D0006D1EF6D570BD00002DE9F04106460024E3
:1003E00010687529314616A510D0AFF3008000289B
:1003F00002DA404213A507E031688A0701D512A549
:1004000002E0490704D511A5012401E0AFF3008003
:1004100000210A2206F1240709E0B0FBF2FCB0FB40
:10042000F2F302FB1C00303078541846491C0028B7
:10043000F3D123462A463046BDE8F04100F0D9B852
:10044000000000002D0000002B0000002000000034
:100450002DE9F05F894604464FF0000ADFF824B129
:10046000FB44C0F820A02046E168884700287DD0E2
:10047000252806D0D4E901219047206A401C20623B
:10048000F1E700255F462046E168884720280646B8
:1004900007DB312E05D2B81910F8200C08B105433E
:1004A000F1E7A80701D525F00405C4F81CA0002732
:1004B000C4F818A02A2E09D0304604F041FD38B304
:1004C00004EB8708303EC8F8186019E059F8041B9F
:1004D000204604EB87029161E1688847012F0646B8
:1004E00018D1E069002820DA25F020051DE0D8F8B1
:1004F000180000EB800006EB40003038C8F8180008
:100500002046E1688847064604F01AFD0028EED12F
:10051000012F0AD02E2E08D12046E16888477F1C83
:100520000646022F45F02005C4DBA069002803DA47
:10053000404245F00105A061E80701D025F0100513
:10054000A6B1A6F14100192802D8203645F400656D
:100550004A463146204625604D46FFF74FFE60B1C2
:10056000012807D0ED1D25F0070000E007E000F1AD
:10057000080978E705F1040975E730467AE7206A4B
:10058000BDE8F09F625500004FF0000200B5134631
:1005900094469646203922BFA0E80C50A0E80C50A3
:1005A000B1F12001BFF4F7AF090728BFA0E80C5054
:1005B00048BF0CC05DF804EB890028BF40F8042B4D
:1005C00008BF704748BF20F8022B11F0804F18BFBA
:1005D00000F8012B704770477047704710B500F066
:1005E0007FF8006810BD10B5044600F079F804608B
:1005F00010BD2DE9F0470D4699469246044600F19C
:1006000024080168880604D5E06921F01001216002
:1006100000E00120A84201DD471B00E00027A1699E
:100620007A1902EB0900081AA0612078C00602D4EA
:100630002046FFF7A9FE002608E0D4E901211AF8B8
:1006400006009047206A401C761C20624E45F4DB71
:100650002078C0060AD52046FFF796FE06E0D4E9CA
:10066000012130209047206A401C2062381EA7F1EB
:100670000107F4DC07E0D4E9012118F805009047F0
:10068000206A401C2062281EA5F10105F3DC2046EB
:10069000FFF790FE2078000602D50220BDE8F08723
:1006A0000120FBE701694A1C02610878704700B528
:1006B0008FB0CDE901310021059105497944CDE99B
:1006C000031011466846FFF7C3FE0FB000BD0000DF
:1006D000E5FFFFFF0A6802F8010B0A60704700009F
:1006E000004870472405002000487047240500207A
:1006F0007546FFF7F9FFAE4605006946534620F000
:100700000700854618B020B5FFF7A0FDBDE82040E2
:100710004FF000064FF000074FF000084FF0000BBD
:1007200021F00701AC46ACE8C009ACE8C009ACE870
:10073000C009ACE8C0098D46704710B50446AFF358
:1007400000802046BDE81040FFF76CBD014918202D
:10075000ABBEFEE726000200704710B50146806B75
:10076000026C12F0500F05D0026CD20626D500F0B4
:10077000D9FA10BD016C41F40071016401688A6806
:1007800012F0405F17D1027EAAB9CA6A12F4700F44
:1007900002D08A6852050ED44A6822F020024A60CC
:1007A000016C21F480710164016CC90403D4016CF3
:1007B00041F00101016400F0B3FA10BD806BC26C1E
:1007C000BDE810400846104710B5806B4021016419
:1007D000416C41F00401416400F0A4FA10BD10B571
:1007E000806B00F09EFA10BD464910B54A6822F4AD
:1007F00040324A604A6843681A434A6001684A685E
:1008000022F480724A6001684A68036942EA03225E
:100810004A6001684A6822F040724A6001684A688A
:1008200083681A434A6001688A6822F400628A6019
:1008300001688A68C3681A438A60816A6FF07062CF
:10084000D14201688A6822F070628A6001688A6811
:100850000CD0836A1A438A6001688A6822F0405289
:100860008A6001688A68C36A1A4301E022F0405234
:100870008A6001688A6822F002028A6001688A68D8
:10088000037E42EA43028A6090F820100029016842
:100890004A680FD042F400624A6001684A6822F454
:1008A00060424A6001684A68174C436A04EB43336C
:1008B0001A4301E022F400624A600168CA6A22F425
:1008C0007002CA620168CA6A838B104C04EB03533E
:1008D0001A43CA6201688A6822F400728A60016859
:1008E0008A6890F8303042EA43228A6001688A6858
:1008F00022F480628A6001688A68406942EA802046
:10090000886010BD0023014000E0FFFF0000F0FF01
:10091000FEE700002DE9F04104462DED068B00684E
:1009200004F0C6FF41EC100B03F05EFE9FED359B1B
:1009300051EC100B53EC192B04F0C6FD9FED33ABBB
:1009400053EC1A2B04F0C0FD04F032FB08EE100A41
:10095000606804F0ADFF41EC100B03F045FE53EC72
:10096000192B51EC100B04F0AFFD53EC1A2B04F0D3
:10097000ABFD04F01DFB00EE100A2648217AF1EED3
:10098000408A00F1180600F1300500F14807B1B1C6
:10099000D4ED030AB0EE680A02F086FED4ED030A35
:1009A000B0EE480A304602F07FFED4ED030AB0EE06
:1009B000680A284602F078FED4ED030A18E09FED9D
:1009C000169AB0EE680A1348F0EE490A02F06CFE7F
:1009D000F0EE490AB0EE480A304602F065FEF0EE4D
:1009E000490AB0EE680A284602F05EFEF0EE490AB7
:1009F000B0EE480ABDEC068B3846BDE8F04102F087
:100A000053BE00000000000000003E400000000057
:100A10000000E03FFC0200200000F04210B503F0AF
:100A200037FC01F0EBFF0148007810BD000000200A
:100A300070B50B4D0421284600F0E6FD0446082160
:100A4000284600F0E1FD0749012C01D01CB104E06B
:100A500018B9022002E0012800D00020087070BD03
:100A60000008024000000020014800F011BB000017
:100A70007C02002001681823CAB2103AB2FBF3F2DC
:100A8000054B6FF30901032A9B5CC36500D9091D5F
:100A90008165084670470000A659000810B5014658
:100AA00000208B698A6A4FF0C07453B1B3F5005FC0
:100AB00015D072B1012A0CD0022A0AD0032A09D11A
:100AC00004E01AB1012A06D0022A03D1C96AC90179
:100AD00000D5012010BDC96AA142FAD010BD002A7C
:100AE000F7D0012AF2D0022AF3D0032AF3D010BDA6
:100AF00030B50468256825F48025256004686360A6
:100B00008368402B036803D099600068C26030BDE1
:100B10009A600068C16030BD7047012000F070BC71
:100B2000042000F06DBC102000F06ABC402000F0F2
:100B300067BC72B6FEE700B500F004F8C0F580703F
:100B400080B200BD01784278881A914201D200F546
:100B5000807080B2704770B586B00D46044614218F
:100B60006846FFF711FD2046FFF7ECFF132823DB53
:100B70006078A21C815C502902D0401C60701BE090
:100B800001232B7060786946401C607000206678F5
:100B9000B65C0E546678401C761C80B266701228D3
:100BA000F5D39DF811004A2803D19DF810005A286A
:100BB00005D0284603F055FB002006B070BD6B70D1
:100BC00000202B180A5C401C80B29A701028F8D3C1
:100BD0000120F2E778B50024009490F83C20012A27
:100BE00019D0012280F83C200A6807230568092AE9
:100BF00013D9EE680A3A02EB420293409E43EE603C
:100C00000B788A680A3B03EB43039A400368DD686C
:100C10002A43DA6010E0022078BD2E6902EB42021E
:100C200093409E432E610B788A6803EB43039A40FE
:100C300003681D692A431A614A681F23072A13D2D1
:100C400005686E6B521E02EB820293409E436E63F8
:100C50000B790A885B1E92B203EB83039A40036808
:100C60005D6B2A435A6327E005680D2A12D22E6B6A
:100C7000D21F02EB820293409E432E630B790A88B7
:100C8000DB1F92B203EB83039A4003681D6B2A4378
:100C90001A6311E0EE6A0D3A02EB820293409E4322
:100CA000EE620B790A880D3B92B203EB83039A4004
:100CB0000368DD6A2A43DA62164B0568144A9D42CE
:100CC00006D10D68122D03D1556845F48005556095
:100CD00005689D4218D10B68102B01D0112B13D140
:100CE000536843F400035360096810290CD10A4982
:100CF0000A4A0968B1FBF2F101EB8101490000E009
:100D0000491E00910029FBD180F83C40002078BDAD
:100D100000230140002001402400002040420F0039
:100D200070477047704770B504004FF0000503D05E
:100D3000206C002610B107E0012070BD204600F0B5
:100D40001DF8666484F83C60206CC00610D4206CEA
:100D500020F4885040F0020020642046FFF744FD54
:100D60006664206C20F0020040F00100206400E086
:100D7000012584F83C60284670BD000070B586B03F
:100D8000064614216846FFF7FFFB1E49306888427B
:100D900035D11D480025016841F48071016000686B
:100DA00000F48070059018481438016841F0010182
:100DB00001600068694600F001000590062000907F
:100DC0000320CDE90105114800F026FB114C104825
:100DD000C4E900050015A560C4E903508000606106
:100DE0008000A0618011E0610002C4E9080520468E
:100DF00000F01EFA08B1FFF79CFEB463A66306B0CC
:100E000070BD000000200140443802400000024054
:100E10001064024070000020F8B5044600200E4621
:100E2000009094F83C10012907D0012184F83C106F
:100E300021688B68DB0702D011E00220F8BD8B68C7
:100E400043F001038B604049404B0968B1FBF3F16B
:100E500001EB410100E0491E00910029FBD121680E
:100E60008B68DB0503D58B6823F480738B60216866
:100E70008B68DB075DD0236C40F20165AB4343F424
:100E8000807323644968490505D5216C21F400511C
:100E900041F480512164216CC90404D5616C21F0B6
:100EA0000601616400E0606484F83C00A16B29489D
:100EB000274DC863A16B28480864A16B2748C86404
:100EC00021686FF0220008602068416841F080616D
:100ED00041602068816841F4807181602168134617
:100EE00032464C31A06B00F00DFA68681C49C00610
:100EF000206806D0884224D1816811F0405F13D069
:100F00001FE08842F8D0174A904203D1D1F8042359
:100F1000D206F1D0144A904213D1D1F8041301F053
:100F20001F011029E8D30CE0816841F08041816005
:100F300007E0206C40F010002064606C40F001007D
:100F400060640020F8BD00002400002040420F0033
:100F5000002301405B070008DF070008C9070008FD
:100F600000200140002101400022014010B504464C
:100F7000002094F83C1001290CD0012184F83C1089
:100F800021688A6822F001028A6021688A68D20793
:100F900002D01DE0022010BD8A6822F480728A60AF
:100FA000A16B91F83520022A07D1084600F014F809
:100FB00018B1216C41F04001216421684A6822F097
:100FC00080624A60216C21F4885141F00101216462
:100FD000002184F83C1010BD2DE9F0410446876DD6
:100FE00000F024FB064694F835000025022806D0C0
:100FF0008020606584F834500120BDE8F0812068CD
:10100000016821F0160101602068416921F080012A
:101010004161206C08B9A06C20B12068016821F002
:10102000080101602068016821F0010101600CE005
:1010300000F0FCFA801B052807D9202060650320FA
:1010400084F8350084F83450D7E720680068C0077A
:10105000EED194F85C103F208840B860012084F8FD
:10106000350084F834500020C7E790F83510022985
:1010700003D08021416501207047052180F835109B
:101080000068016821F00101016000207047000044
:101090002DE9F84304464FF00009CDF8009063486D
:1010A0004FF41651A56D0068B0FBF1F72E6894F867
:1010B0005C10082000FA01F131420FD021680A6863
:1010C00052070BD50A6822F004020A6094F85C10FB
:1010D0008840A860606D40F00100606594F85C1085
:1010E0004FF0010808FA01F0304208D02168496940
:1010F000090604D5A860606D40F00200606594F8B0
:101100005C1004208840304208D0216809688907B3
:1011100004D5A860606D40F00400606594F85C1030
:1011200010208840304218D021680968090714D57A
:10113000A86020680168490304D50068000308D549
:10114000A16C07E00168C90503D4016821F008011A
:101150000160216C09B12046884794F85C1020207A
:101160008840304231D021680968C9062DD5A86071
:1011700094F8350005282068016806D0490347D552
:10118000006800031DD4616C1CE021F016010160B1
:101190002068416921F080014161206C08B9A06C90
:1011A00020B12068016821F00801016094F85C100A
:1011B0003F208840A86084F8358084F83490216D01
:1011C0001FE0E16B09B120468847606D00282BD0F5
:1011D000606DC00714D0052084F8350020680168D0
:1011E00021F0010101600098401C0090B84203D832
:1011F00020680068C007F6D184F8358084F8349000
:10120000E16C002910D001B02046BDE8F04308474A
:101210000168C905D5D4016821F01001016084F886
:10122000358084F83490CCE7BDE8F88324000020B2
:101230002DE9F041044600F0F9F906465CB10220C0
:1012400084F83500002584F834502068016821F0C6
:10125000010101600DE00120BDE8F08100F0E6F938
:10126000801B052805D920206065032084F83500FF
:10127000F2E720680068C007F0D1226811682048B2
:101280000140D4E901031843D4E90336334318433A
:1012900063691843A3691843E3691843236A184331
:1012A0000843616A042903D1D4E90B1319430843A5
:1012B000106020684069666A20F0070130460E43DE
:1012C000012704280CD1A06A0643E06A40B12046F9
:1012D000FFF7E4FB20B14020606584F83570BAE781
:1012E000206846612046FFF7C5FB94F85C203F214B
:1012F00091408160656584F835700020ACE700009E
:101300003F8010F02DE9F0410446866D90F83400DE
:10131000002501280DD0012084F8340094F83570A0
:101320000020012F07D084F8340002252846BDE8AC
:10133000F0810220FBE7022784F8357060652046C3
:10134000FFF7D6FB94F85C103F208840B06020681F
:10135000016841F016010160206C20B1206801682D
:1013600041F0080101602068016841F0010101605D
:10137000DCE7000070B5044600F058F90546601C33
:1013800002D004480078044400F050F9401BA04209
:10139000FAD370BD180000202DE9F0410124164D4C
:1013A000164E41F6510701280FD0042813D01028FB
:1013B0001AD0402807D105F1480002F027F941F67C
:1013C0000D302865F470BDE8F0810B4802F01EF97D
:1013D000AF603470F7E70848183002F017F941F6AB
:1013E000452028627470EEE70348303002F00EF9B1
:1013F000AF63B470E7E70000FC02002007000020A4
:10140000044910B50A68024202D00860FFF7C4FF21
:1014100010BD0000143C01402DE9F84FDFF8BCA1DD
:101420000022012503264FF00F090AF1040BAAF14F
:10143000040E00BF0B6805FA02F42340A34270D1EA
:101440000F7907F00307012F01D0022F16D187680B
:101450004FEA420806FA08FC27EA0C07D1F80CC04C
:101460000CFA08FC4CEA070CC0F808C04768A74310
:101470000C79C4F3001494403C4344600C79E44379
:10148000A4070AD0C4684FEA420C06FA0CF7BC4322
:101490008F6807FA0CF72743C7600C7904F0030440
:1014A000022C12D1D40800EB840CDCF82040570742
:1014B000FF0E09FA07F824EA0804D1F8108008FAA8
:1014C00007F848EA0408CCF8208004684FEA420C88
:1014D00006FA0CF7BC430F7907F0030707FA0CF77D
:1014E000274307604C6814F4403F70D03C4C276899
:1014F00047F480472760246822F0030704F48044FF
:101500000094384C07EB040CDCF8084897074FEAC6
:10151000177809FA08F7BC43334FB84202D10027C5
:1015200024E054E0314FB84201D101271EE0304F92
:10153000B84201D1022719E02E4FB84201D103274A
:1015400014E02D4FB84201D104270FE02B4FB842D1
:1015500001D105270AE02A4FB84201D1062705E04C
:10156000284FB84201D1072700E0082707FA08F7FB
:101570002743CCF80878DAF800405746D1F804C081
:101580009C435FEACC2C00D51C433C60DBF8004058
:101590005F46D1F804C09C435FEA8C2C00D51C4305
:1015A0003C60DEF800407746D1F804C09C435FEA17
:1015B0008C3C00D51C433C60084F083F3C68D1F888
:1015C00004C09C435FEACC3C00D51C433C60521CE9
:1015D000102AFFF42FAFBDE8F88F0000083C01404F
:1015E0004438024000300140000002400004024044
:1015F00000080240000C02400010024000140240AB
:1016000000180240001C02400069084000D0012080
:101610007047426921EA02030A4043EA02418161BC
:1016200070470AB1816170470904FBE7014880688F
:1016300070470000180000200248816802781144B9
:1016400081607047180000200B4810B5016841F414
:1016500000710160016841F480610160016841F43A
:1016600080710160032000F071F8032000F006F89B
:1016700000F024F8002010BD003C024070B50D4D74
:1016800004464FF47A712878B1FBF0F00A490968F2
:10169000B1FBF0F000F00CFB48B9102C07D200228F
:1016A0002146501E00F032F800206C6070BD012011
:1016B00070BD000018000020240000200B4882B0FC
:1016C000016841F480410160006800F480400090AE
:1016D0000648001F016841F080510160006800F079
:1016E00080500090052002B000F030B8443802402D
:1016F000002809DB00F01F02012191404009800011
:1017000000F1E020C0F8001170470000F0B40E4B6B
:101710001B680C46C3F30223C3F10705042D00D94F
:101720000425191D072901D2002300E0DB1E012634
:1017300006FA05F1491E214099409E40761E16404A
:101740003143F0BC02F0D4BD0CED00E0064900F0DE
:10175000070208684FF6FF03184040EA0220034AD8
:1017600010430860704700000CED00E00000FA052F
:101770002DE9F0470E46050065D0DFF81481D8F852
:101780000000F7B200F00700B04207D288F80070FE
:10179000D8F8000000F00700B04254D128683D4C52
:1017A000810712D5400703D5206840F4E05020603F
:1017B0002878000703D5206840F460402060206846
:1017C000A96820F0F000084320602878C0072DD0D9
:1017D000304968680839012812D0022813D003283C
:1017E00011D00968890700292DDA216821F0030149
:1017F00001432160FFF71AFF814641F2883A0EE06B
:1018000009688903EFE709688901ECE7FFF70EFF34
:10181000A0EB0901514502D90320BDE8F0872068FB
:10182000696800F00C00B0EB810FEFD1D8F8001020
:10183000404601F00701B14207D90770006800F087
:101840000700B04201D00120E7E72878400705D51E
:101850002068E96820F4E0500843206028780007F9
:1018600006D52068296920F4604040EAC100206064
:1018700000F038F82168084AC1F30311515CC840F0
:101880000649086006480068FFF7F8FE0020C4E734
:10189000003C024008380240AE59000824000020F5
:1018A0001C0000200448054900680968044AC1F387
:1018B0008221515CC8407047240000200838024053
:1018C000BE5900080448054900680968044AC1F384
:1018D0004231515CC8407047240000200838024063
:1018E000BE590008154810B5006810F00C021448E5
:1018F00013D04110042A0FD0082A0ED10F4C241FF8
:101900002268236802F03F025B0207D52068C0F31B
:101910008810A0FB010106E0084610BD2168C1F354
:101920008811A1FB00010023FEF7A2FC2168C1F38E
:101930000141491C4900B0FBF1F010BD08380240DC
:101940000024F4002DE9F84F04006ED02078DFF871
:101950004C93C007A9F104054AD009F104000168BD
:10196000C1F38101012908D00068C0F38100022879
:101970000AD1D9F80000400206D52868800337D57F
:1019800060680028E1D033E06068B0F5803F10D097
:10199000B0F5A02F286810D020F480302860286887
:1019A00020F4802028606068A8B1FFF73FFE06465B
:1019B0000DE0286840F48030F4E740F4802028608F
:1019C000F7E700BFFFF732FE801B642873D8286852
:1019D0008003F7D50CE0FFF729FE064605E000BFBF
:1019E000FFF724FE801B6428F0D828688003F7D412
:1019F0002078DFF8AC8280074FF0000A3ED5A74878
:101A0000001D016811F00C0F08D00068C0F38100C0
:101A100002280BD1D9F80000400207D428688007BB
:101A200016D5E068012800D112E033E1E068B8B1D2
:101A30000120C8F80000FFF7F9FD064605E000BFE9
:101A4000FFF7F4FD801B0228C0D828688007F7D56F
:101A50002868216920F0F80040EAC10028600DE004
:101A6000C8F800A0FFF7E2FD064604E0FFF7DEFD40
:101A7000801B02281FD828688007F7D42078000729
:101A800022D5864F87486169703771B101210160A5
:101A9000FFF7CCFD064604E0FFF7C8FD801B0228D7
:101AA00009D838688007F7D50EE0C0F800A0FFF726
:101AB000BDFD064605E082E0FFF7B8FD801B022869
:101AC0007DD838688007F7D42078400768D5DFF8DC
:101AD000CCB100270BF13C0BDBF80000C0000BD4AD
:101AE000DBF8001041F08051CBF80010DBF800006B
:101AF000012700F0805000906B4E3068C00510D474
:101B0000306840F480703060FFF790FD009005E091
:101B1000FFF78CFD0099401A022850D83068C005A4
:101B2000F6D55E4EA0686C3601280FD005283068C7
:101B300010D020F001003060306820F004003060E8
:101B4000A068B8B1FFF772FD00900FE0306840F078
:101B50000100F4E740F004003060F7E7FFF766FDAE
:101B60000099411A41F28830814266D83068800776
:101B7000F4D50EE0FFF75AFD009007E0FFF756FDA1
:101B80000099411A41F28830814256D83068800766
:101B9000F4D42FB1DBF8001021F08051CBF8001005
:101BA000A069C8B33D49091D0968C1F38101022933
:101BB0004AD00228504607D0C8F8600000E03CE058
:101BC000FFF734FD04463BE04746C8F86000FFF7E6
:101BD0002DFD064605E000BFFFF728FD801B02280B
:101BE0002BD828688001F7D4D4E907010843A16AFB
:101BF0002E4A490802EB0141626A41EA8211084318
:101C000094F82C1040EA0161C9F8001001203866F0
:101C1000FFF70CFD044606E03EE000BFFFF706FDBF
:101C2000001B022809D828688001F7D534E000BFDE
:101C3000FFF7FCFC001B022802D90320BDE8F88F47
:101C400028688001F4D427E00128F7D0D9F80000F3
:101C5000E26900F4800191421CD1226A00F03F0148
:101C6000914217D147F6C071626A0140B1EB821F01
:101C700010D1A26A4FF0FF3300F4403103EB52025F
:101C8000B1EB024F06D194F82C1000F07060B0EB6D
:101C9000016F01D00120D1E70020CFE704380240D6
:101CA00000004742800E4742007000400000FFFFE6
:101CB00010B5401EB0F1807F01D3012010BD4FF060
:101CC000E02460610F21601702F012FB0020A06188
:101CD00007202061002010BD7047704770B590F854
:101CE0003C20012A32D0012480F83C40022280F8B6
:101CF0003D2003685A689D6822F070060A683243E6
:101D00005A60134B02689A4214D0B2F1804F11D03E
:101D1000104B9A420ED0104B9A420BD00F4B9A4266
:101D200008D00F4B9A4205D00E4B9A4202D00E4B70
:101D30009A4204D1496825F080031943916080F8E4
:101D40003D40002180F83C10084670BD022070BD67
:101D5000000001400004004000080040000C00406A
:101D600000040140004001400018004010B504008C
:101D700003D094F83D0010B107E0012010BD002011
:101D800084F83C00204600F01FF8022084F83D0053
:101D9000211D206801F002FE012084F8460084F82D
:101DA0003E0084F83F0084F8400084F8410084F845
:101DB000420084F8430084F8440084F8450084F825
:101DC0003D00002010BD000008B5314902683148CF
:101DD0008A420ED1016841F00201016000680222CE
:101DE00000F00200009003211D20FFF78FFC1D2052
:101DF00048E02849284B091D9A420ED1086840F452
:101E0000003008600868002200F4003000900221D1
:101E10001920FFF77BFC192034E0204B9A420ED1A9
:101E2000086840F4802008600868012200F48020DF
:101E3000009002211A20FFF769FC1A2022E01849BD
:101E40008A420ED1016841F08001016000680222DF
:101E500000F08000009011462C20FFF757FC2C204A
:101E600010E010498A4211D1016841F4807101608B
:101E70000068032200F48070009002212D20FFF7FB
:101E800045FC2D20BDE80840FFF732BC08BD00002E
:101E90000004004040380240004401400048014036
:101EA000001C00400020004090F83D10012901D0A6
:101EB00001207047022180F83D100168CA6842F095
:101EC0000102CA6000681149884214D0B0F1804F05
:101ED00011D00F4988420ED00E4988420BD00E49CE
:101EE000884208D00D49884205D00D49884202D069
:101EF0000C49884204D1816801F00701062903D00A
:101F0000016841F0010101600020704700000140BC
:101F10000004004000080040000C004000040140A4
:101F200000400140001800400168CA6822F0010228
:101F3000CA6001680A6A41F211131A4207D10A6A9B
:101F40009B101A4203D10A6822F001020A600121A3
:101F500080F83D100020704770B5044690F83C00B2
:101F60000025012817D0012684F83C60022084F85F
:101F70003D002068826822F0770222F47F4282606E
:101F80000868502838D00DDC20284FD005DC90B3ED
:101F9000102811D14AE0022070BD302846D04028D8
:101FA0000AD13BE060282FD070280DD0B0F5805FBB
:101FB00003D0B0F5005F12D0012584F83D60002009
:101FC00084F83C00284670BDCB68D1E90121206827
:101FD00001F055FD2068816841F0770109E0CB6888
:101FE000D1E90121206801F04AFD2068816841F4AF
:101FF00080418160E1E719E0CA684968206801F022
:1020000013FE5021206806E0CA684968206801F084
:102010001CFE6021206801F03CFDCEE7CA684968DB
:10202000206801F001FE40212068F4E722680146A3
:102030001046F0E7704770B50446006801694FF03C
:102040000005C943890715D4C168C943890711D45C
:10205000E91E016101202077206880698007204601
:1020600002D0FFF7E7FF04E000F0F2F8204600F0AE
:1020700084F9257720680169C943490717D4C168E5
:10208000C943490713D46FF004010161022020778E
:102090002068806910F4407F204602D0FFF7CAFF15
:1020A00004E000F0D5F8204600F067F925772068B5
:1020B0000169C943090716D4C168C943090712D485
:1020C0006FF008010161042020772068C069800753
:1020D000204602D0FFF7AEFF04E000F0B9F820463A
:1020E00000F04BF9257720680169C943C90617D468
:1020F000C168C943C90613D46FF0100101610820FB
:1021000020772068C06910F4407F204602D0FFF796
:1021100091FF04E000F09CF8204600F02EF92577AE
:1021200020680169C943C90708D1C168C943C90703
:1021300004D1891E0161204600F0C2F920680169BE
:10214000C943090609D4C168C943090605D46FF01B
:10215000800101612046FFF7BFFD20680169C94386
:10216000490609D4C168C943490605D46FF0400146
:102170000161204600F0ECF920680169C943890635
:102180000BD4C168C943890607D46FF020010161EF
:102190002046BDE87040FFF7A0BD70BD70B586B0A9
:1021A000044614216846FEF7EFF92468214E002208
:1021B0002149022303252148B44209D10C6844F087
:1021C00002040C60096801F00201059181150BE021
:1021D0001B4EB44212D10C6844F002040C60096832
:1021E00001F00201059171150091CDE90132CDE9AF
:1021F00003256946FFF710F906B070BD114E092599
:102200001148B44209D10C6844F001040C6009681B
:1022100001F0010105914021E6E70C4EB442EBD1FB
:102220000C6844F001040C60096801F0010105919B
:102230008021D9E7004401403038024000040240C8
:1022400000480140001C0040000002400020004007
:10225000704770B5044690F83C0000260D460128F2
:102260000FD0012084F83C006AB1042A1DD0082A4E
:102270002FD00C2A3FD00126002084F83C003046A5
:1022800070BD022070BD206801F00CFC20688169DF
:1022900041F0080181612068816921F004018161B8
:1022A000206881692A69114311E0206801F02AFC45
:1022B0002068816941F4006181612068816921F4AD
:1022C00080618161206881692A6941EA0221816116
:1022D000D2E7206801F04CFC2068C16941F0080198
:1022E000C1612068C16921F00401C1612068C16930
:1022F0002A69114311E0206801F06EFC2068C16971
:1023000041F40061C1612068C16921F48061C1614B
:102310002068C1692A6941EA0221C161ACE710B5B0
:10232000040003D094F83D0010B107E0012010BD77
:10233000002084F83C00204600F01EF8022084F8BB
:102340003D00211D206801F029FB012084F8460092
:1023500084F83E0084F83F0084F8400084F841008F
:1023600084F8420084F8430084F8440084F845006F
:1023700084F83D00002010BD7047704710B504463A
:10238000022249B104290ED0082913D094F8410043
:10239000012816D0012010BD94F83E000128F9D183
:1023A00084F83E200FE094F83F000128F2D184F831
:1023B0003F2008E094F840000128EBD184F8402049
:1023C00001E084F841200122206801F04BFB16490E
:1023D0002068164A884201D0904203D1436C43F4EE
:1023E000004343642068884213D0B0F1804F10D07E
:1023F0000F4988420DD00F4988420AD00E498842C1
:1024000007D0904205D00D49884202D00C4988423D
:1024100004D1816801F00701062903D0016841F069
:1024200001010160002010BD0000014000040140D6
:102430000004004000080040000C00400040014043
:102440000018004030B504460D460068002201F037
:1024500009FB194B41F2111120688A10984202D0F1
:10246000164B984209D1036A0B4206D1036A134204
:1024700003D1436C23F4004343642068036A0B4296
:1024800006D1016A114203D1016821F00101016006
:1024900001203DB1042D08D0082D09D084F8410059
:1024A000002030BD84F83E00FAE784F83F00F7E7EB
:1024B00084F84000F4E700000000014000040140FF
:1024C0001D4A1E49904209D108468A788068012A2F
:1024D00002D0401E88607047401CFBE7184A9042BB
:1024E00009D116488A7E006A012A02D0401E08627D
:1024F0007047401CFBE7134A90420AD10F4891F8FD
:102500003220806B012A02D0401E88637047401C35
:10251000FBE70D4A90420AD1084891F84A20006D25
:10252000012A02D0401E08657047401CFBE707499E
:102530008842F9D101F0B8B918010020FC0200204E
:1025400060010020A8010020F0010020D000002040
:1025500070477047704710F83D1F40780843704738
:10256000F8B5016804460868CA684B6910F00F0F97
:102570004FF0000559D003F0010602F4907737437D
:1025800065D0C10705D0D10503D5216C41F001010B
:102590002164410705D5D90703D0216C41F0020120
:1025A0002164810705D5D90703D0216C41F00401CE
:1025B0002164010707D502F02001314303D0216CCB
:1025C00041F008012164216C00293AD0800604D52D
:1025D000900602D5204601F0D2FB20684069216CAC
:1025E000C0F38010090700D460B3204601F092FBCD
:1025F00020684069400621D52068143050E8001F4B
:1026000021F0400140E80012002AF5D1A06BA8B1EA
:102610006C490165A06BFEF728FD002811D0A06B66
:10262000016D01B0BDE8F040084783060FD5930661
:102630000DD52046BDE8F84001F0A1BB2046FFF7CC
:1026400089FFF8BD2046FFF785FF2564F8BD266B9E
:102650002023012E79D1C60677D5D60675D5086810
:10266000486800904869400640D5A16B08684068FA
:102670000004000CEAD0A28D8242E7D9E085C86947
:10268000B0F5807F2DD020680C3050E8001F21F479
:10269000807140E80012002AF5D12068143050E81B
:1026A000001F21F0010140E80012002AF5D1206846
:1026B000143050E8001F21F0400140E80012002AC9
:1026C000F5D184F83E30256320680C3050E8001FB7
:1026D00021F0100140E80012002AF5D1A06BFEF7AE
:1026E0007BFCA08DE18D401A81B229E0A08DE18DA7
:1026F000401A81B2E08D0028A8D00029A6D0206819
:102700000C3050E8002F22F4907240E80026002E92
:10271000F5D12068143050E8002F22F0010240E883
:102720000026002EF5D184F83E30256320680C3059
:1027300050E8002F22F0100240E80023002BF5D1D2
:102740002046FFF706FFF8BDFFE705062BD5150667
:1027500029D594F83D002128F5D1A068B0F5805F17
:1027600001D12069B0B1206A411C21622168007842
:102770004860E08C401E0004000CE084E3D1206837
:10278000C16821F08001C1602068C16841F040014A
:10279000C160D8E7206A0088C0F308004860206A5A
:1027A000801C2062E5E74006CDD55006CBD5CA682F
:1027B000204622F04002CA6084F83D3000F00AF959
:1027C000C1E700006F3C000870B5040004D094F825
:1027D0003D00002510B106E0012070BD84F83C509A
:1027E000204600F023F8242084F83D002068C168CA
:1027F00021F40051C160204601F022FB20680169EC
:1028000021F4904101612068416921F02A01416170
:102810002068C16841F40051C1602564202084F81B
:102820003D0084F83E00002070BD000070B586B009
:10283000064614216846FDF7A7FE24493068884201
:1028400041D123480025016841F010010160006872
:1028500000F0100005901E481438016841F0010195
:1028600001600068694600F0010005904FF4C06007
:1028700000900220CDE90105032003900720049079
:102880001448FEF7C9FD154C134820604FF0006056
:1028900060604020C4E902050001C4E90405A561A7
:1028A000E561256220466562FEF7C2FC08B1FEF7CD
:1028B00040F97463002203212520A663FEF726FF5A
:1028C0002520FEF715FF06B070BD00000010014086
:1028D0004438024000000240B86402407C020020FC
:1028E00090F83E30202B0ED159B152B190F83C30C7
:1028F000012B08D0012380F83C300023036301F052
:1029000025BB0120704702207047000000B5006819
:102910000A4988420FD10A48FEF70DF900280AD06B
:10292000084802780648811C03785A540178FF2928
:1029300002D0491C017000BD0021FBE700100140DE
:102940005C0300200600002070B5044690F83D00AE
:10295000202836D191B38AB394F83C00012830D0B6
:10296000012084F83C002162A284E28400252564D1
:10297000212084F83D00636B1348D863636B1348D0
:102980001864636B1248D864606B1346056526684B
:10299000606B321DFEF7B6FC21686FF040000860E6
:1029A00084F83C502068143050E8001F41F080014A
:1029B00040E80012002AF5D1002070BDFFE7012099
:1029C000FBE70220F9E70000C93C00080B3D0008C6
:1029D0007F3C000870477047FEE7000041790648D9
:1029E000012905D0002905D101220821FEF719BED1
:1029F0000022FAE7704700000000024010B50548C9
:102A000000F0A2F8BDE81040142203490348FEF785
:102A100003BA000010000020D40400202800002089
:102A20004279002A42D102889FED210A4FF47A733D
:102A3000B2F5486F04D3D1ED010A70EEC00A05E08B
:102A40009A4205D8D1ED010A70EE800AC1ED010A63
:102A5000408840F6AC52904204D3D1ED000A30EEEB
:102A6000C00A05E0984205D8D1ED000A30EE800A90
:102A700081ED000A0F4A08689FED0F0A0F4BDFED4A
:102A8000100A904202DD81ED000A03E0984201D96C
:102A9000C1ED000A4868904202DD81ED010A03E0C1
:102AA000984201D9C1ED010A002008727047000068
:102AB000ACC52737B9B8B23EB9B8B23EB9B8B2BEA4
:102AC000B9B8B2BE70B504462DED028B00259FED5E
:102AD0001A8A1A48F0EE488AFEF748FA18489FED1D
:102AE000192A0021CA0750F82120B0EE481A00EE3A
:102AF000102AF8EE400AB0EE420A17D000F068F84B
:102B0000F0EE408A491CC9B21429EBD3FFF776FFD7
:102B1000BCEEC80A257110EE100ABCEEE80A20804F
:102B200010EE100A6080BDEC028B70BD00F050F812
:102B3000B0EE408AE6E70000000000002800002018
:102B4000D4040020CDCC4C3F002101804180417154
:102B5000017170472DE9F0411A4A1B4D1B4E0124AB
:102B600041F6510730B101280CD0022814D00328B7
:102B70001FD119E002211046FEF746FDC8B9AF602B
:102B800034701DE008211046FEF73EFD88B941F67D
:102B900045202862747013E020211046FEF734FDB2
:102BA00038B9AF63B4700BE080211046FEF72CFDFE
:102BB00010B10020BDE8F08141F60D302865F470B9
:102BC0000120F7E7000C0240FC0200200700002073
:102BD000F7EE001A60EE200A31EEC00A40EE010A5C
:102BE000B0EE600A704700007FB500211A480091DE
:102BF00001910291174A0391026001244FF480323F
:102C00000461C0E90121047680F82010134AC0E96C
:102C10000A210225C561C16080F830404161FEF79C
:102C200082F808B1FDF785FF0094019469460A48CF
:102C30000294FDF7CFFF08B1FDF77BFF00956946D1
:102C400005480195FDF7C6FF002801D0FDF771FF8B
:102C50007FBD000000200140280000200100000F7F
:102C6000094808B5016841F4800101600068032249
:102C700000F48000009011464620FEF747FDBDE8B5
:102C800008404620FEF734BD303802402DE9F047B9
:102C900086B014216846FDF777FC6148002601687C
:102CA00041F010010160016801F010010591016817
:102CB00041F004010160016801F00401059101681F
:102CC00041F080010160016801F080010591016817
:102CD00041F001010160016801F001010591016805
:102CE00041F008010160016801F0080105910168E7
:102CF00041F00201016000684A4F00F002000590B7
:102D000000223F213846FEF78CFCDFF81C810122AF
:102D100011464046FEF785FCDFF81091012208219C
:102D20004846FEF77EFCDFF808A10022C02150468D
:102D3000FEF777FC1520012402258DE87100694615
:102D40003846FEF769FB2A208DE83100694638468F
:102D50000395FEF761FBCDE90246009469464046C3
:102D60000194FEF759FB0E20CDE900066946029456
:102D70004046FEF751FBCDE90046694648460295BC
:102D8000FEF74AFB0820CDE90004CDE9024669467A
:102D90004846FEF741FB552000904FF48810CDE9DE
:102DA0000105244F69463846FEF736FBAA20CDE9D7
:102DB0000006694602953846FEF72EFB40208DE856
:102DC000710069465046FEF727FB80208DE83100F0
:102DD000694650460395FEF71FFB0022012106209D
:102DE000FEF794FC0620FEF783FC01221146082022
:102DF000FEF78CFC0820FEF77BFC022201210A2052
:102E0000FEF784FC0A20FEF773FC03220121172041
:102E1000FEF77CFC1720FEF76BFC06B0BDE8F087E0
:102E2000303802400010024000080240000002401A
:102E300000040240000C024010B588B01C21684616
:102E4000FDF7A2FB1448134900240160A721C0E943
:102E500001146321C0E903148461FEF787FF08B100
:102E6000FDF767FE0C48FFF75AFA08B1FDF761FE5F
:102E70006020CDE9000402940022694606480494CB
:102E8000FFF7E7F908B1FDF754FE0348FFF786F9AD
:102E900008B010BD004401401801002010B588B0F2
:102EA0001C216846FDF770FB14481349002401609B
:102EB000A721C0E901146321C0E903148461FEF76E
:102EC00055FF08B1FDF735FE0C48FFF728FA08B1A9
:102ED000FDF72FFE6020CDE9000402940022694630
:102EE00006480494FFF7B5F908B1FDF722FE034840
:102EF000FFF754F908B010BD004801406001002000
:102F000010B588B01C216846FDF73EFB14481349F4
:102F1000002401605321C0E901146321C0E90314B6
:102F20008461FEF723FF08B1FDF703FE0C48FFF7AD
:102F3000F6F908B1FDF7FDFD6020CDE9000402942B
:102F40000022694606480494FFF783F908B1FDF7AB
:102F5000F0FD0348FFF722F908B010BD001C004047
:102F6000A801002010B588B01C216846FDF70CFBB5
:102F700014481349002401605321C0E9011463215E
:102F8000C0E903148461FEF7F1FE08B1FDF7D1FD3D
:102F90000C48FFF7C4F908B1FDF7CBFD6020CDE97F
:102FA000000402940022694606480494FFF751F990
:102FB00008B1FDF7BEFD0348FFF7F0F808B010BDFB
:102FC00000200040F001002010B586B00024174812
:102FD00000940194029403940494134905940160AD
:102FE0005321C0E9011442F20F71C0E90314846156
:102FF000FEF7BCFE08B1FDF79CFD4FF48050009039
:1030000069460A48FEF7A8FF08B1FDF792FD04944F
:1030100004A906480594FEF761FE002801D0FDF7DB
:1030200088FD06B010BD000000040040D000002064
:103030000C4810B50A4901604FF4E13141600021AC
:1030400081600C22C160C0E904128161C161FFF797
:10305000BBFB002803D0BDE81040FDF76ABD10BDE2
:103060000010014038020020FEE700002DE9F84F73
:103070002BA02C4900680090002002460A54401CF6
:10308000C0B288460428F9D300259DF80070264E6A
:103090004FF0010A06E01DF80570684615B1284496
:1030A00010F8019C07EB470106EBC104204684F8A9
:1030B00002A000F025FA204600F06CFA3846FFF72F
:1030C00049FD18B3204600F0A1FA2DB109EB4900E3
:1030D00006EBC00000F09AFA384600F09FFF204649
:1030E000DFED120A9FED120A00F0DEFA6D1CEDB260
:1030F000042DD0D30120BDE8F88F15B1584600F05B
:103100004DFA0C48007800F06FFF03E009EB49002E
:1031100006EBC00B18F807000028EED0D5E700003A
:103120000002010307000020FC02002000003443DD
:103130000000000000000020FEE7704770B500248A
:103140001F492048FDF707FD1F4D70B31F491C485C
:1031500000F0A8F81D49087C20B1012806D00228FB
:1031600013D022E01948FDF7D5FB1EE0088B00EED6
:10317000100A487CF8EE400A00EB400091ED070A87
:1031800005EBC00000F090FA0FE0487C4A6900EBC4
:10319000400005EBC0004260098B00EE101AB8EE4B
:1031A000400A80ED030A00F039FA04EB440005EB15
:1031B000C00000F0F3F9641CE4B2042CF5D370BD38
:1031C0005E0400205C030020FC020020DC020020E2
:1031D0009FED080A002180ED000A80ED010A0172CE
:1031E00080ED030A017441744161018380ED070A97
:1031F000704700000000000070B50D48FFF762FC4A
:103200000C490B48FFF70CFC0948FFF7E7FB09489E
:10321000FDF780FB084D002404EB440005EBC000E3
:1032200000F0BCF9641CE4B2042CF5D370BD0000BE
:1032300010000020DC020020FC02002070B5164CBB
:10324000E1782078814202D0FDF7E8FBE070207839
:1032500060B1012817D0022819D0032812D1FFF736
:103260006DFFBDE870400D48FFF72CBC0C4D0024ED
:1032700004EB440005EBC00000F090F9641CE4B2DC
:10328000042CF5D370BDBDE87040FFF757BFBDE813
:103290007040FFF7B1BF00000000002010000020C8
:1032A000FC020020F0B49FED6A0A0025C378F0EE1E
:1032B000400AF0EE401A2E462A462C462F46B2EE21
:1032C000041A312B08D04FF0010C322B33D0332BA2
:1032D0006ED0342B7BD08FE00F720F740423C7188D
:1032E000F0EE602ABF785B1C303F02EE107ADBB252
:1032F000082BB8EEC22AF0EE420A42EE810AEED363
:103300000823C718F0EE402ABF785B1C303F02EE5E
:10331000107ADBB20C2BB8EEC22AB0EE420A02EEF3
:10332000810AEED30379302B01D1F1EE600A4379A3
:10333000302B3AD060E081F808C00F740423C7181E
:10334000F0EE602ABF785B1C303F02EE107ADBB2F1
:10335000082BB8EEC22AF0EE420A42EE810AEED302
:103360000823C718F0EE402ABF785B1C303F02EEFE
:10337000107ADBB20C2BB8EEC22AB0EE420A02EE93
:10338000810AEED30C23C718F0EE612ABF785B1CCC
:10339000303F02EE107ADBB2102BB8EEC22AF0EE0C
:1033A000421A42EE811AEED3BCE7B1EE400A23E0A6
:1033B00081F810C04279037A303AD5B2C28852BA45
:1033C000120442EA0324427A14430DE0FFE702228A
:1033D0000A744279037A303AD5B2C28852BA1204DA
:1033E00042EA0326427A16434289037B52BA120408
:1033F00042EA0322437B1A439FED162AC0EE822A3B
:10340000DFED150A82EEA03AF0EE002A63EE223AD2
:103410009FED123A63EE833AC1ED013AC0EE023AF3
:1034200083EEA00A20EE220A20EE030A81ED000AB4
:1034300081EE810A81ED030A00EE104A4D74B8EE68
:10344000C00A81ED070A4E610A83F0BC00F009BF93
:10345000000000000000C8420000B443D00F494003
:103460007047000010B501234A08B0B1012822D0EE
:1034700002282ED003283AD11D48046863620368ED
:10348000D962C1600068426300211948FEF776FFE7
:103490001748BDE81040FEF707BD16480468636290
:1034A0000368D962C1600068426300211148FEF7D9
:1034B00065FF1048EDE71048046863620368D9624D
:1034C000C1600068426300210B48FEF757FF0A48BD
:1034D000DFE70A48046863620368D962C160006874
:1034E000426300210548FEF749FF0448D1E710BDBB
:1034F000F00100201801002060010020A801002038
:103500000178164B71B1012915D002291BD003296E
:1035100023D18178124801291DD001225FF080015A
:10352000FEF77FB88078012803D0012220211846B9
:10353000F6E70022FAE78078012802D0012208216C
:10354000F5E70022FBE78078012802D00122022162
:10355000EDE70022FBE70022E0E7704700100240A1
:103560000004024001700021417001238370C27089
:1035700041609FED060A816080ED030A9FED040A19
:1035800040F2E73180ED040A818270470000344345
:1035900000007A44818A0078FFF764BF70B5044662
:1035A0004578D4E90121002301204DB18A421FDD75
:1035B000A17801290ED0A0702046FFF7A1FF09E0F5
:1035C0008A4209DD6070A0702046FFF799FF20460F
:1035D000FFF7E0FF012070BD08DA6070A37020469D
:1035E000FFF78EFF2046FFF7D5FF08E0002070BDF3
:1035F00007DAA07818B1A3702046FFF781FF0220F8
:1036000070BD6370204600F001F8EFE710B5044686
:10361000007800F067F80020607010BDD0ED030A5C
:103620009FED1D1A1D4A80EE810A10EE101A91427C
:1036300001DDB1EE040AC178C82211FB02F20123B8
:10364000B3FBF2F200EE902AB7EE001AF8EE600A31
:10365000F4EEC00AF1EE10FA02DB80ED041A0BE082
:1036600000EE901AF8EE600A20EE800ADFED0C0AF8
:1036700020EE200A80ED040AD0ED040ADFED091ADD
:1036800081EEA00A30EE410ABCEEC00A10EE101A1C
:103690008182012070470000000070420000A040BD
:1036A0000000484300247449C17841F6510201EEFC
:1036B000101AB8EE411A21EE000A9FED091A20EE09
:1036C000010ABDEEC00A10EE101A4160914202DC00
:1036D0005242914200DA4260C0ED030AFFF79EBFFA
:1036E0000000484310B570B1012812D0022816D04E
:1036F00003281AD100210D48FEF7A4FE0B48BDE8AF
:103700001040FEF711BC00210948FEF79BFE084857
:10371000F5E700210748FEF795FE0648EFE7002190
:103720000548FEF78FFE0448E9E710BDF0010020D0
:103730001801002060010020A8010020FDF77CBFD7
:1037400030B593B030216846FCF71EFF14210CA859
:10375000FCF71AFF1D480025016841F08051016007
:10376000006800F0805011901948016841F48041D0
:1037700001600068022400F4804011900120009054
:10378000000401908001CDE9064008AA0420A82188
:1037900082E813000B906846FEF7D4F808B172B6C1
:1037A000FEE70CA90F2081E831004FF4A0500F90E4
:1037B0004FF48050109005210CA8FDF7D9FF002888
:1037C00001D072B6FEE713B030BD000040380240B1
:1037D000007000400248016841F4700101607047C8
:1037E00088ED00E010B5052200211548FFF7BAFE6C
:1037F0001348052201211830FFF7B4FE10480522B6
:1038000002213030FFF7AEFE0D480522032148307B
:10381000FFF7A8FE0B48FFF7DBFC0B48FEF744FB65
:103820000A4C02212046FDF7EFFE0028F9D1FFF7F0
:103830001DFC074908B1012000E00320487010BDBD
:10384000FC020020DC020020D00000200008024022
:103850000000002010B5134CA1786078814202D09E
:1038600000F052F8A070607868B101280FD00228EB
:103870000FD0032814D100F0DFFCBDE810404FF456
:10388000FA70FDF777BDBDE81040FFF7ABBFFDF75D
:10389000CFF8FFF7D3FC2078BDE8104000F0A4BBC0
:1038A00010BD00000000002070B5134C0A21A08854
:1038B000401C80B2B0FBF1F201FB1201A080012597
:1038C00009B90E490D703221B0FBF1F201FB120073
:1038D00018B901210A48FDF79CFEA0884FF47A71BF
:1038E000B0FBF1F201FB1200002803D1054805707E
:1038F0000020A08070BD0000000000200B00002010
:10390000000802400C00002070B5044601281ED0BB
:10391000022C02D0032C05D019E0C1B90D490320B7
:10392000087014E00C4D012210212846FDF779FEA5
:10393000012204212846FDF774FE01221146284683
:10394000FDF76FFE012240210448FDF76AFE204684
:1039500070BD000000000020001002400004024082
:103960000148FEF768BB0000600100200148FEF737
:1039700062BB0000180100200148FEF75CBB00009C
:10398000D00000200148FEF756BB0000F0010020E7
:103990000148FEF750BB0000A8010020F0B5026806
:1039A000254C264D264E274F274B4FF0804CA042EA
:1039B00009D0604507D0A84205D0B04203D0B84234
:1039C00001D0984204D122F0700E4A6842EA0E02F9
:1039D000A0421BD0604519D0A84217D0B04215D0E4
:1039E000B84213D0984211D0184DA8420ED0184DAD
:1039F000A8420BD0174DA84208D0174DA84205D0B9
:103A0000164DA84202D0164DA84203D122F44075AB
:103A1000CA682A434D6922F080022A4302608A68FC
:103A2000C2620A688262A04201D0984201D109694B
:103A3000016301214161F0BD00000140000400402C
:103A400000080040000C004000040140004001401C
:103A5000004401400048014000180040001C0040A4
:103A60000020004010B501F01F030121046A9940B5
:103A70008C430462016A9A401143016210BD10B583
:103A8000846842EA032224F47F440A43224382608A
:103A900010BD826822F070020A4342F00701816083
:103AA00070470000F0B5026A22F001020262036A68
:103AB00042688469124E24F073050C682C4323F08D
:103AC00002058B682B430D4DA84201D0B04205D1B1
:103AD00023F00807CB683B4323F00403A84201D03E
:103AE000B04205D14D6922F4407215438A692A43D8
:103AF00042608461496841630362F0BD0000014097
:103B000000040140F0B5026A22F010020262026A6B
:103B1000436884690D6824F4E64444EA05248D680A
:103B200022F0200242EA05120F4D104EA84201D0A9
:103B3000B04206D1CF6822F0800242EA071222F09A
:103B40004002A84201D0B04207D14D6923F440633E
:103B500043EA85038D6943EA8503436084614968CC
:103B600081630262F0BD00000000014000040140DA
:103B7000F0B5026A22F480720262026A4368C46984
:103B800022F4007224F073050C68124E2C438D68E9
:103B900042EA05220E4DA84201D0B04206D1CF68BC
:103BA00022F4006242EA072222F48062A84201D095
:103BB000B04207D14D6923F4405343EA05138D69A0
:103BC00043EA05134360C4614968C1630262F0BD02
:103BD000000001400004014030B5026A22F4805226
:103BE0000262046A4268C3690D6823F4E64343EA4B
:103BF00005238D6824F4005444EA0534084DA84296
:103C000002D0084DA84204D14D6922F4804242EA14
:103C100085124260C36149680164046230BD0000DE
:103C2000000001400004014010B5036A046A24F05A
:103C300001040462846924F0F00444EA021423F0CD
:103C40000A020A438461026210BD10B5036A23F0C0
:103C5000100303628369046A23F4704343EA023267
:103C600024F0A00343EA01118261016210BD10B586
:103C7000806B0021C185C184FEF76CFC10BD70B55E
:103C8000846B2068406994F83D10C0F3C010002593
:103C9000212904D118B1E584204600F062F820689B
:103CA000406994F83E10C0F38010222904D118B165
:103CB000E585204600F02EF8206C40F010002064CE
:103CC0002046FEF747FC70BD10B50146806B0968C1
:103CD0000968C90516D40021C1840168143151E86E
:103CE000002F22F0800241E80023002BF5D101686B
:103CF0000C3151E8002F42F0400241E80023002B34
:103D0000F5D110BDFEF766FE10BD10B5806BFEF755
:103D100062FE10BD01680C3151E8002F22F4907250
:103D200041E80023002BF5D10168143151E8002F40
:103D300022F0010241E80023002BF5D1016B01299B
:103D400009D101680C3151E8002F22F0100241E83E
:103D50000023002BF5D1202180F83E1000210163C3
:103D6000704701680C3151E8002F22F0C00241E891
:103D70000023002BF5D1202180F83D10704708B5B5
:103D800090F83E10222901D0022008BD82684FF42D
:103D900080539A4201D1016921B1816A9A421BD0B4
:103DA0004AB10AE00268816A5268C2F308020A80D6
:103DB000816A891C08E0026972B10268526802F0E7
:103DC0007F020A70816A491C8162C18D491E090403
:103DD000090CC18503D019E002685268F1E7016857
:103DE000CA6822F02002CA600168CA6822F48072A0
:103DF000CA6001684A6922F001024A61202180F804
:103E00003E10016B012903D0FEF780FD002008BDA4
:103E10000021016301680C3151E8002F22F01002EB
:103E200041E80023002BF5D101680A68D20602D5CB
:103E30000A6849680091818DFEF78BFBE6E7000078
:103E400070B5044600680169E26821F440511143ED
:103E500001612169A068E26908436169114308436F
:103E60002168CA6849F20C639A430243CA60206819
:103E70004169A26921F440711143416131492068CF
:103E8000884202D03049884202D1FDF71BFD01E093
:103E9000FDF708FDE2690023192164253226B2F5F9
:103EA000004F626828D0A0FB0101930F9200FCF73D
:103EB000DFF90146B0FBF5F06FF01802504301EB5B
:103EC000800006EB0010B0FBF5F000F0F002B1FB53
:103ED000F5F002EB0012B1FBF5F06FF01803584358
:103EE00001EB800006EB0010B0FBF5F000F00F00D6
:103EF00021681044886070BDA0FB010192185B41ED
:103F0000FCF7B6F90146B0FBF5F00201B1FBF5F0A4
:103F10006FF01803584301EB800006EBC000B0FBC4
:103F2000F5F000F0F80002EB4002B1FBF5F0584369
:103F300001EB800006EBC000B0FBF5F000F00700DD
:103F4000D6E7000000100140001401408162828524
:103F5000C28500210164222280F83E2080F83C10B6
:103F6000016921B10168CA6842F48072CA600168BF
:103F70004A6942F001024A610068C16841F02001CB
:103F8000C16000207047000070B5002441F6FF7545
:103F90000D48FEF7E5FA03E0641CA4B2AC4204D875
:103FA0000948FEF7D8FA2028F6D1002403E0641C63
:103FB000A4B2AC4206D8012204490348FEF790FCA3
:103FC0000028F4D170BD0000380200200600002057
:103FD0000020044902460A54401CC0B26428FAD3A7
:103FE000704700007004002038B5094C2078012883
:103FF0000AD108480090A0F11803A0F13002A0F106
:104000004801054800F02EF80020207038BD00005F
:104010000B00002044030020DC02002010B5034602
:10402000FFF7D6FF1A4605A10C48FCF799F9BDE841
:104030001040642209490A48FEF786BC4D6F746F30
:1040400072256420686173206265656E20696E69FF
:104050007469616C697A65642E0D0A007004002031
:1040600038020020F0B52DED068B87B01446129D66
:1040700090ED010ADFED560A20EE201A9FED550A59
:1040800081EE009A90ED001A8868996861EE200A26
:104090000844C0EE808A00EE100AF8EEC00ADFED98
:1040A0004E9A80EEA90A10EE100A01F001FC41ECD4
:1040B000100B00F02DF99FED49AB51EC100B53ECB8
:1040C0001A2B01F001FA9FED471B53EC112B01F065
:1040D00049F800F06DFF08EE100AA068A9680844CE
:1040E00000EE100AF8EEC00A80EEA90A10EE100ADF
:1040F00001F0DEFB41EC100B00F00AF953EC1A2B37
:1041000051EC100B01F0E0F99FED381B53EC112B33
:1041100001F028F800F04CFF00EE900AB5EEC09ACE
:10412000F1EE10FA01DB012200E00022F5EEC08A78
:10413000F1EE10FA01DB012300E00023B5EEC08AA6
:10414000F1EE10FA01DB012700E00027F5EEC00ACE
:10415000F1EE10FA01DB012600E000269FED250AB2
:1041600029EE001ABDEEC11A11EE105A002D00DA28
:104170006D4228EE801ABDEEC11A11EE104A002CD5
:1041800000DA644228EE001ABDEEC11A11EE101AD0
:10419000002900DA494220EE800ABDEEC00A10EE86
:1041A000100A002800DA4042CDE90410CDE900549D
:1041B000CDE9027610A11E48FCF7D2F807B02D22F7
:1041C000BDEC068BBDE8F04019491A48FEF7BCBBB0
:1041D00000003443D00F49400060EA460000000070
:1041E0000080664000000000FA2109C000000000C5
:1041F000FA2109400000C842503031253164253190
:10420000642530346425303464303030305A4A20EC
:10421000202020503031253164253164253034642C
:1042200025303464313131315A4A200D0A00000002
:10423000700400203802002010B5FFF7C9FE0549C0
:104240000548FCF78DF8BDE8104064220249034898
:10425000FEF77ABB985B000870040020380200204B
:10426000FEE700220270427011464318491CC9B291
:104270009A701029F9D37047012101700022427011
:1042800011464318491C89B29A70FF29F9D9704721
:1042900010B5FEF7CDFE012205490648FEF720FBCA
:1042A0000548FFF7E9FFBDE810400448FFF7D9BF14
:1042B00006000020380200205C0300205E0400207D
:1042C00003B401984100009850EAC12018BF0420AF
:1042D0004A0D18BF40F0010040F2FF72B2EB515F8F
:1042E00008BF40F00200012808BF052002B0704757
:1042F0000907090E002804DB00F1E02080F8001413
:10430000704700F00F0000F1E02080F8141D7047A6
:1043100070B59B482DED020B2DED068B079D25F00A
:104320000044A04218DC9748844202DC0AD1069877
:1043300040B19DED060BBDEC068B02B0BDE87040B0
:1043400000F0D2BD002DCCBF9FED8F0B9FED900BE9
:10435000BDEC068B02B070BD8F48A04215DD8F48C2
:10436000A042D8BF4FF0FF3458DD9DED060B51EC55
:10437000100BFFF7A5FF042808BF00F0D1FD9DED4D
:10438000060BBDEC068B02B070BD9DED060B51EC2B
:10439000100B00F0DCFDCDE9060181489FED828B1A
:1043A000A0423CDD8248A0421FDD00249FED82AB8D
:1043B0009DED060B53EC1A2B51EC100B00F02AFE6E
:1043C0009DED060B41EC190B53EC1A2B51EC100B25
:1043D00001F07AF853EC182B01F080F953EC192B0B
:1043E00000F0C0FECDE9060149E09DED060B012479
:1043F00053EC182B51EC100B00F00CFE9DED060B4E
:1044000041EC190B53EC182B51EC100B01F066F931
:1044100053EC192B00F0A6FECDE906012FE0684809
:10442000A0421FDD02249FED689B9DED060B53EC1F
:10443000192B51EC100B01F047F853EC182B00F03E
:10444000E9FD9DED060B41EC180B53EC192B51ECDB
:10445000100B01F043F953EC182B00F083FECDE96B
:1044600006010CE09DED060B032453EC102B9FED91
:10447000580B51EC100B00F075FECDE906019DEDD7
:10448000060B53EC102B51EC100B01F01DF841EC16
:10449000180B53EC182B01F017F841EC190B4E4890
:1044A0000621B0EE490AF0EE690A784400F0F8FA05
:1044B00053EC182B51EC100B01F006F841EC180BE3
:1044C0004648B0EE490AF0EE690A0521784400F04A
:1044D000E7FA53EC192B51EC100B00F0F5FF41EC0F
:1044E000100B51EC180B53EC102B002C0EDA00F0D3
:1044F00091FD9DED061B53EC112B00F0E5FF9DEDAA
:10450000061B53EC112B01F0DDF835E000F082FDC5
:104510009DED061B53EC112B00F0D6FF41EC100B68
:104520002F48784400EBC40090ED001B51EC100BB9
:1045300053EC112B01F0D2F89DED061B53EC112B1F
:1045400001F0CCF841EC100B2648784400EBC40095
:1045500090ED001B51EC100B53EC112B01F0B2F855
:1045600041EC100B002DA2BFBDEC068B02B070BD5C
:1045700051EC100B00F010FD41EC100B01E70000B6
:10458000000010440000F07F182D4454FB21F93F37
:10459000182D4454FB21F9BF0000DC3F0000203EF1
:1045A0000000F33F00000000000000000000F03FAA
:1045B0000000E63F00000000000000000000004096
:1045C0000080034000000000000000000000F83FF1
:1045D000000000000000F0BF921500004815000028
:1045E000D21400008A14000010B51D499FED1A1B5B
:1045F0002DED020B84B0059820F000408842DCBF0E
:1046000001209DED040B21DD1649884209D1049853
:1046100040B94FF00100FBF7E6FF00F071FC06B077
:1046200010BD05DB9DED040B00F05EFC06B010BD77
:1046300068469DED040B00F017F800F00100012121
:10464000A1EB40009DED021B9DED000B00F0A4FAD4
:1046500006B010BD000000000000000000000000D7
:10466000FB21E93F0000F07F2DE9F14F04462DEDDD
:10467000020B2DED088B8AB09FEDE70B80ED020B4E
:10468000139EE74826F0004585420ADC9DED120B9B
:10469000002084ED000B0AB0BDEC088B03B0BDE830
:1046A000F08FE0489FEDE0AB9FEDE1BBA84247DD16
:1046B000E14F9FEDE39B9FEDE48B9DED120B53ECDF
:1046C0001A2B51EC100B002E1CDD01F007F841EC09
:1046D000100BBD4208D053EC1B2B51EC100B00F01B
:1046E000FDFFC4E900010BE053EC192B51EC100B5A
:1046F00000F0F4FF53EC182B00F0F0FFC4E90001C8
:104700000120C8E700F086FC41EC100BBD4208D048
:1047100053EC1B2B51EC100B00F07CFCC4E90001A6
:104720000BE053EC192B51EC100B00F073FC53EC25
:10473000182B00F06FFCC4E900014FF0FF30AAE72E
:10474000C348A84279DB9DED120B51EC100B00F031
:10475000FEFB41EC180B9FEDC00B53EC102B00F04F
:10476000B3FE9FEDBF1B53EC112B00F053FC00F088
:1047700051FE074600F07DFE41EC190B53EC1A2B5D
:1047800000F0A2FE53EC182B00F09CFF41EC180B3C
:1047900053EC1B2B51EC190B00F096FEDFF8C8A26E
:1047A00041EC100B4FEA15580125FA4453EC102B3D
:1047B00051EC180B00F092FF032DC4E900013DD02D
:1047C000C1F30A5005EB4511A8EB000011398142F5
:1047D00034DA0AEB051BB0EE48AA9BED000BF0EEB5
:1047E00068AA53EC102B51EC190B00F06DFE41EC54
:1047F0001B0B51EC1A0B53EC1B2B00F06FFF41EC21
:10480000180B51EC1A0B53EC182B00F067FF53EC0C
:104810001B2B00F063FF9BED020B41EC1A0B53ECDA
:10482000102B51EC190B00F04FFE53EC1A2B00F03B
:1048300055FF41EC100B6D1CB8E70EE0002EA8BF31
:104840003846BFF628AF94ED000B51EC100B00F08A
:10485000A3FBC4E9000178421DE7C6F3130040F44E
:10486000801EC6F30A50A0F2F530471100F01F0574
:10487000C5F12000DDF848B00890002006900790B0
:104880000520EC467949002D07EB0002794408BF6A
:1048900051F8221009D051F8223001EB8201AB40CF
:1048A0004A68089922FA01F11943A1FB0E26A1FBDF
:1048B0000B131A449A4234BF0123002303EB06086A
:1048C0000CEB8003D3E901A60E448E4234BF0121D4
:1048D000002192448A4411B1924502D903E09245E5
:1048E00001D2012100E00021C3E901A641444CF8B6
:1048F0002010011EA0F10100C4DC029800F100505C
:10490000850F0298DDE903678000DDF8148000F070
:10491000B0FD41EC1A0B304600F0C2FD9FED541B78
:1049200053EC112B00F0D0FD41EC1B0B384600F08E
:10493000B7FD9FED511B53EC112B00F0C5FD41EC71
:10494000180B404600F0ACFD9FED4D1B53EC112BB6
:1049500000F0BAFD41EC190B51EC180B53EC192B7C
:1049600000F058FB53EC1B2B00F054FB53EC1A2BBC
:1049700000F050FBCDE90801002008909DED080BE8
:1049800053EC1A2B51EC100B00F0A8FE53EC1B2B30
:1049900000F0A4FE53EC182B00F0A0FE53EC192BF2
:1049A00000F090FE9FED381B53EC112B00F08CFDB6
:1049B0009FED370B41EC180B53EC102B9DED080BC2
:1049C00051EC100B00F080FD53EC182B00F022FB93
:1049D0009FED310B41EC180B53EC102B9DED080BA8
:1049E00051EC100B00F070FD53EC182B00F012FB93
:1049F00041EC100B139810F0004F06D06D4251ECB3
:104A0000100B00F0C9FA41EC100B284684ED000BA6
:104A100041E600000000000000000000000000006F
:104A2000FB21E93F7CD9024000004054FB21F93FC3
:104A30003163621A61B4D03DFB21F93F00000000F0
:104A40000000601A61B4D03D7370032E8A19A33B35
:104A5000FB2139410000000083C8C96D305FE43F8D
:104A6000000000000000E03FC21200001012000031
:104A7000000000000000103E000000000000103C9C
:104A8000000000000000103A182D4454FB21F93DAD
:104A90003326A611460B113C00000054FB21F93DC2
:104AA00070B504462DED028B4D1E00EBC500B0EE37
:104AB000408AF0EE608A90ED000B35F0060017D0CA
:104AC00053EC182B51EC100B00F0FEFC41EC100BDA
:104AD0006D1E04EBC50090ED001B51EC100B53EC68
:104AE000112B00F097FA41EC100B35F00600E7D1DE
:104AF000022D36D0042D1CD0062D1CBFBDEC028B20
:104B000070BD53EC182B51EC100B00F0DDFC94ED54
:104B10000A1B53EC112B00F07DFA53EC182B00F01C
:104B2000D3FC94ED081B53EC112B00F073FA41EC0D
:104B3000100B53EC182B51EC100B00F0C5FC94ED4E
:104B4000061B53EC112B00F065FA53EC182B00F008
:104B5000BBFC94ED040B53EC102B00F05BFA41EC22
:104B6000100B53EC182B51EC100B00F0ADFC94ED36
:104B7000021B53EC112B00F04DFA53EC182B00F0F4
:104B8000A3FC94ED001B53EC112B00F043FABDEC99
:104B9000028B41EC100B70BDF1B506462DED040BF8
:104BA000BD482DED0C8B8AB0B0EE418AF0EE618AE3
:104BB000179D25F000449FEDBABB9FEDBBCB84420F
:104BC00008DA9DED160B51EC100B00F023FC0028C9
:104BD00000F0E980B64FA74231DC002D0DDA9DEDE3
:104BE000160B51EC100B00F0D7F9CDE9160151EC82
:104BF000180B00F0D1F941EC180B9FEDAF0B53EC03
:104C0000102B9DED160B51EC100B00F05BFD53ECDF
:104C1000182B9FEDAB0BCDE9040151EC100B00F00C
:104C20005DFD41EC100B53EC102B9DED040B51EC92
:104C3000100B00F0EFF99FEDA48BCDE916019DED6F
:104C4000160B53EC102B51EC100B00F03DFCCDE992
:104C500004019DED040B53EC102B51EC100B00F0F4
:104C600033FC41EC190B9A480621B0EE490AF0EEEC
:104C7000690A7844FFF714FF9648B0EE40DAF0EE88
:104C800060DAB0EE490AF0EE690A06217844FFF7CF
:104C900007FF9DED041B51EC100B53EC112B00F0A2
:104CA00013FC9DED040B41EC1A0B53EC102B9DED06
:104CB000160B51EC100B00F007FC41EC190B53ECF8
:104CC0001A2B51EC1D0B00F0A5F953EC192B00F039
:104CD000FBFB53EC182B00F09DF99DED041B53ECEE
:104CE000112B00F0F1FB53EC182B00F093F941EC81
:104CF000180B9FED790B51EC190B53EC102B00F0B6
:104D0000E3FB53EC182B00F085F941EC190B9DEDFA
:104D1000160B53EC192B51EC100B00F07BF941EC06
:104D2000180BA74269DC304600F0A3FB41EC1A0BDC
:104D300051EC180B53EC1A2B00F06CF941EC1B0BE7
:104D400053EC182B51EC180B00F0BEFB53EC1B2B53
:104D500000F008FA53EC192B00F0C0FC9DED161B77
:104D600053EC112B00F0AEFC9FED5D1B53EC112BAF
:104D700000F0AAFB53EC1A2B00F0A4FC41EC180B3A
:104D8000022000EAA570C0F1010000F072FB53ECB4
:104D9000182B00F099FB00BF41EC100B0AB0BDECE2
:104DA0000C8B05B0F0BD711C1698214308430CD044
:104DB0009DED160B012E1CBF53EC102B51EC1C0B60
:104DC00010D000BF00F0CEF9E6E79DED160B51ECD8
:104DD000100B00F0BCF841EC100B51EC1B0B53EC2A
:104DE000102BEFE751EC100BFFF76AFA042808BF0D
:104DF00000F096F89DED160BD0E7012E04BFB0EE43
:104E0000480AF0EE680AC9D08DED048B00240494A2
:104E10009DED040B53EC102B9DED160B51EC100B7C
:104E200000F050FC53EC192B00F04CFC41EC190B3A
:104E300053EC182B51EC1C0B00F094F941EC180BBF
:104E40008DED008B00949DED040B53EC102B9DED2C
:104E5000000B51EC100B00F037FB53EC1B2B00F058
:104E6000D9F89DED000B41EC1A0B53EC192B51ECCA
:104E7000100B00F029FB53EC1A2B00F0CBF853EC8D
:104E8000182B00F021FB9DED001B53EC112B00F0C3
:104E9000C1F881E7000000000000303E0000000083
:104EA000000000000000F03F000000000000F0BF24
:104EB0002894E53F00000000182D4454FB21E93FF1
:104EC000075C143326A6813C0000000000000000AF
:104ED000C20E0000D80E0000635555555555D53FFC
:104EE000000000000000004010B553EC102B51EC06
:104EF000100B00F08FF841EC100B10BD000000000B
:104F00009FED050B10B553EC102B51EC100B00F07E
:104F100029F941EC100B10BD00000000000000005A
:104F20009FED050B10B553EC102B51EC100B00F05E
:104F3000CBFA41EC100B10BD000000000000001087
:104F400030380A2801D2012070470020704782B013
:104F5000CDE9000121F0004001909DED000B02B071
:104F600051EC100B7047FCF76FFBFEF7E9FBFDF708
:104F70008DFEFDF775FEFDF75FFFFDF78FFFFDF777
:104F8000BFFFFDF7EFFFFEF753F8FDF72DFEFEF72D
:104F90001BF8FEF75FFCFCE781F00041704780F0F2
:104FA0000040704721F00041704720F000407047FA
:104FB00021F00042A2F16052B2F5801F01F00043DF
:104FC00028BFD2F17F6C0BD95FEA001C43EAC20212
:104FD00042EB507018BF704728BF20F001007047A7
:104FE000B2F5801FBCBF184670474FEA410C1CF554
:104FF000001F02D2084600F0D1BC70B500F00EFBD5
:1050000000000089FFF7F6BF4FF00040A0F58000D8
:105010007047000010B591EA030F48BF83F00043CA
:1050200000F16483841A71EB030C05D2121943EB6F
:105030000C03001B61EB0C01DFF824E14FEA115473
:10504000A4EB135C1EEA430F18BF9EEA445F73D0C3
:1050500023EA0E03DCF1200E21EA045143F480130D
:1050600032D322FA0CFE10EB0E0023FA0CFE41EBB9
:105070000E01CCF1200E03FA0EFE10EB0E0051F1E2
:105080000001B1F5801FCCF1200E32D201EB0451AA
:1050900012FA0EF2BDE8104058BF7047401C38BFEE
:1050A0005FEA420218BF7047002814BF20F00100D9
:1050B00041F100014FEA410313F5001F38BF70476B
:1050C000A1F1C04100F0F8BA012A43EB0302ACF1B0
:1050D000200CDCF11F0E32BF4FF0000E23FA0CF350
:1050E00010EB030041EB0451B4EB115FD0D0A1EB06
:1050F000045101F5801149085FEA300001EB0451C9
:105100000ED350F1000038BF12FA0EFE08D1BDE8F0
:105110001040C9E7401C38BF5FEA4202CAD1C3E76A
:10512000BDE810404FEA410313F5001F38BF704738
:10513000A1F1C04100F0C0BA9EEA445F08D011EA74
:105140005E0FBDE8104004BF01F000410020704731
:10515000BDE8104070B500F061FA00BF64FBBE3ED0
:105160000000E0FF2DE9C04130B4DFF8A0C23CEA06
:10517000111418BF3CEA131400F0EC8081EA030517
:105180001CEA111444EAD57418BF1CEA131500F088
:10519000C780A4EB05044FF0004545EAC12145EA6C
:1051A000C32341EA505143EA525304F17F749942B8
:1051B00004F500344FEAC0204FEAC22208BF9042F3
:1051C00000F09C804FEA13650FF24016765D4FEABF
:1051D000134506FB05F7C7F1807706FB07F74FEA93
:1051E000D737A7FB03687642C8F58038A7FB06CE01
:1051F00038BFA8F1010807FB08E64FF0000EA6FB38
:10520000028CE6FB03CEDCF1000CCEF1004E38BF81
:10521000AEF1010EA6FB0C584FF000074FF0000551
:10522000E6FB0E87A1FB08C6A0FB07CE16EB0E0619
:1052300045F10005E1FB076515F1E04E7EBFA4F5E1
:1052400080345FEA46066D4116F1800745F100059E
:105250004FEA17274FEA066647EA0567A6F1DE46DA
:10526000B6F1805F4FEA15251FD9384624F0010CAE
:1052700005EBC471BCF1FE6F01EB0C1102D8F0BC60
:10528000BDE8008124425CBF01F5801E9EEAC47F18
:1052900002D4F0BCBDE80081244238D4F0BCA1F1B6
:1052A000C041BDE8004100F007BA4FEAD22242EA0D
:1052B00043524FEAD323A7FB02864FEAD02040EAAD
:1052C000415007FB03661EEA0E0F4FEAD12105FB92
:1052D000026658BFA6EB0056B6EB00564FEA520ED8
:1052E0004EEAC37E18EB0E0E56EB530EBDD518EBEF
:1052F00002085E417F1C55F10005B6E74FF48015AA
:105300004FF000074FF000064FF00008ADE7F0BC8B
:105310004FF0000001F1C04101F00041BDE8008103
:1053200011EA0C1F0CEA131500D00CE013EA0C1F55
:1053300000F025804FF00000F0BC81EA030101F08D
:105340000041BDE80081F0BCBDE8004181EA0301F5
:1053500000F0B2B9F0BCBDE8004170B500F05EF9F4
:10536000097EFC3E00F007B881EA03014FF000001F
:1053700001F00041704781EA030100F09DB9F0BCE3
:10538000BDE800414FF0000021497047FFFDFBF9E7
:10539000F7F5F4F2F0EEEDEBE9E8E6E4E3E1E0DE68
:1053A000DDDBDAD8D7D5D4D3D1D0CFCDCCCBCAC8DA
:1053B000C7C6C5C4C2C1C0BFBEBDBCBBBAB9B8B701
:1053C000B6B5B4B3B2B1B0AFAEADACABAAA9A8A8F4
:1053D000A7A6A5A4A3A3A2A1A09F9F9E9D9C9C9BC2
:1053E0009A9999989797969595949393929191906D
:1053F0008F8F8E8E8D8C8C8B8B8A898988888787FE
:105400008685858484838382828181800000FF0772
:105410000000F87F4FEA41034FEA5353A3F580633E
:10542000D3F11E03C8BFD3F1210C0CDD4FF00042B5
:1054300042EAC12242EA505232FA03FC8CEAE17C91
:10544000ACEBE1707047102BC4BF0020704703F530
:10545000787CBCF1FF3F04D06FF0004282EA21006B
:10546000704770B500F0DAF8499224800020704748
:10547000F2E710F0004248BF4042B0FA80F310FA61
:1054800003F10AD0C3F11D0303F580634FEA4150D5
:1054900002EB035202EBD12170474FF0000070473E
:1054A000B0FA80F310FA03F10AD0C3F11D0303F53B
:1054B00080634FEA41504FEA035202EBD12170471B
:1054C0004FF0000070470000DFF848C170B51CEADB
:1054D000111E1EBF1CEA13159EEA0C0F95EA0C0F55
:1054E00000F06F8081EA030423EA4C134EEAD47E75
:1054F00021EA4C1141F4801143F48013AE44A1FB26
:10550000024CA0FB0365AEF17F7E361955EB0C050E
:10551000A1FB034C4CF10003A0FB021C16EB0C0694
:10552000654153F10003094218BF46F0010613F428
:10553000007F0BD14FEA03314FEA0530340341EAD3
:10554000155140EA16506FF003020AE04FEAC321FA
:105550004FEAC520F40241EA555140EA56506FF037
:10556000020202EB2E4201EB025585EACE710AD00F
:105570005FEA440C18BF24F0004450F1000041F1F0
:10558000000120EAD47040F2FE7C624500D270BD7A
:10559000A84214BF4FF080444FF04044002E08BF93
:1055A0000024BEF1806FA8BFA1F1C041BDE87040EA
:1055B00080F282804FF0000001F1C04101F0004113
:1055C00070479EEA0C0F0CEA131518BF95EA0C0FF2
:1055D00006D04FF0000081EA030E0EF0004170BDCE
:1055E00000F01CF88900013E00F007B800F009B88F
:1055F0004FEA430C5FEA5C5C08D081EA030100F0EB
:105600005BB84FEA410C5FEA5C5CF6D14FF00000FA
:10561000014970470000FF070000F87F0EF1020EFD
:105620002EF0030E5EF8046B364205D4012A43EBDC
:10563000030515F5001F12D8012841EB010C1CF5DC
:10564000001F0CD80ED14FEAD17C15F5001F0CEBD2
:105650004C0C0CF1020C08BF4CEBD37C04E04FF077
:10566000080C01E04FEAD37C0CEB4C0526FA05F65A
:1056700006F00706B6F1040C06D20EEB860CBDE868
:1056800070404CF0010C6047DFE80CF0090B02029F
:105690004FF000414FF00000A1F5002170BD194608
:1056A0001046012851EB010418BFD4F5001484BF43
:1056B000002001F0004170BD0808A0F500114FEA7C
:1056C0003101704791EA030F10B581F000413FF5B9
:1056D000A9AC83F0004300F009B8000010B591EACE
:1056E000030F48BF83F000433FF59CAC841A71EB75
:1056F000030C07D212198CF0004C43EB0C03001B77
:1057000061EB0C01DFF8A4E14FEA1154A4EB135C48
:105710001EEA430F18BF9EEA445F00F0B08023EA00
:105720006E03524221EA0451C3EB6E0338BF5B1E85
:10573000DCF1200E25D322FA0CFE10EB0E0043FA0A
:105740000CFE41EB0E01CCF1200E03FA0EFE10EB25
:105750000E0051F10001CCF1200E29D412FA0EF204
:1057600001EB0451BDE8104058BF7047401C1CBFFE
:10577000B2F1004F704700280CBF491C20F0010017
:10578000704712EB020E43EB030218BF4FF0010EFD
:105790004EEA4202ACF1200CDCF11E0E54D943FA61
:1057A0000CFE10EB0E0051F1FF31CCF11E0ED5D5E1
:1057B0000EF1010E12FA0EFE404141EB010101EB28
:1057C000445C5FEA5C5C10D910EBDE7001EB0451C5
:1057D00038BFBEF1004FBDE8104018BF7047002829
:1057E0000CBF491C20F00100704730D24FEAD42C86
:1057F00011F5001124F400641BD0B1FA81F20B3AC8
:10580000A41AA41ED2F12003914030FA03F31943E5
:10581000904001EBCC71002C01EB0451BDE810402D
:10582000A8BF704701F1C0414FF0000001F00041F6
:105830007047B0FA80F310FA03F100D110BDE41AFA
:10584000173C4805C90AE4E701EB045110BD4910B3
:1058500001EB0451BDE810404FEA300002E04FF088
:10586000000170474A0008BF0042F8D0B2F5001F9F
:1058700028BF704701F000414FF0000070479EEADA
:10588000445F07D011EA5E0FBDE8104004BF00215D
:1058900000207047BDE8104070B5FFF7BFFE00BFA5
:1058A00040DFF63E83F00041104670470000E0FF05
:1058B00043004FEAD30C4FEA3C0C43401FBF400764
:1058C0000CF1605113F0FE4F70471CF0006F03D1D4
:1058D00000200CF0004170470CF0004343EA507088
:1058E00010B540EACC0000F00EF800BF00000092B6
:1058F0004FEA0001FFF7E0BE4FF000414FF000001B
:10590000A1F5002170470EF1020E2EF0030E5EF895
:10591000044B244204D44FEA4102B2F17F4F11D824
:105920004FEA4003B3F17F4F0CD80ED14FEAD07C41
:10593000B2F17F4F0CEB4C0C0CF1020C08BF4CEB9E
:10594000D17C04E04FF0080C01E04FEAD17C0CEB75
:105950004C0324FA03F404F00704B4F1040C06D257
:105960000EEB840CBDE810404CF0010C6047DFE802
:105970000CF0070802024FF00040A0F5800010BDB7
:105980000846420018BFD2F1807288BF00F0004084
:1059900010BD4FF04070E1EE100A7047FF2141EA60
:1059A000D050C00570470006101600061016000003
:1059B00000000000000001020304060708090000BF
:1059C00000000102030404000008000000000000C1
:1059D00000020001000010004FBB610567ACDD3F15
:1059E000182D4454FB21E93F9BF681D20B73EF3F06
:1059F000182D4454FB21F93FE2652F227F2B7A3C7E
:105A0000075C143326A6813CBDCBF07A8807703C36
:105A1000075C143326A6913CC4EB98999999C9BFA9
:105A2000711623FEC671BCBF6D9A74AFF2B0B3BFDE
:105A30009AFDDE522DDEADBF2F6C6A2C44B4A2BF9E
:105A40000D5555555555D53FFF8300922449C23F0A
:105A50006E204CC5CD45B73F513DD0A0660DB13F3E
:105A6000EB0D76244B7BA93F11DA22E33AAD903F50
:105A700000004054FB21F93F3163621A61B4D03D0C
:105A80000000601A61B4D03D7370032E8A19A33BE5
:105A90000000002E8A19A33BC14920259A837B3937
:105AA00000000000000000006E83F9A22915444E9A
:105AB000D15727FCC0DD34F5999562DB4190433C1A
:105AC000AB6351FE61C5BBDE3A6E24B7E0D24D42F6
:105AD000EA2E49061C92D1091CEB1DFE3EA729B1F6
